:020000040800F2
:1000000008010020790E0008650E0008670E000840
:1000100000000000000000000000000000000000E0
:100020000000000000000000000000006B0E00084F
:1000300000000000000000006D0E00086F0E0008B8
:100040008F0C000800000000430E00084F0E00084F
:10005000990E00089B0E00089D0E00089F0E0008D8
:1000600000000000D10A0008A10E0008A30E00083D
:10007000A50E0008A70E0008A90E00080000000049
:10008000AB0E00080000000000000000AD0E0008EC
:1000900000000000710E0008AF0E0008B10E00084D
:1000A00000000000B30E000800000000B50E0008BC
:1000B0000121C206D20E9140904A11607047F0B5FE
:1000C00040B2002821D58E4C40B20207120F083AE8
:1000D0009508042255438A4A40B203071B0F083B88
:1000E0009B0804267343D258FF238607B60F0827C0
:1000F0007E43B3409A438B01DBB28607B60F0827D5
:100100007E43B340134363511AE07E4A40B28308F2
:1001100004246343D258FF238407A40F08256C43AB
:10012000A3409A438B01DBB28407A40F08256C43DC
:10013000A3401343734A40B2840804256C4313510F
:10014000F0BD38B500F0B6F9BB480088BB49498816
:10015000884200D0B4E0B8480089B849098988428B
:1001600000D0ADE000200100B54A1278C9B291423A
:1001700008D20021B14AC0B206234343D2185180AD
:10018000401CF0E70024A4B2802C41DA684600F05D
:1001900037FB00200100AA4A1278C9B2914235D239
:1001A000A649C0B206224243895A6A46C0B2022317
:1001B0004343D25A914227D26946C0B202224243F7
:1001C000895A9E4AC0B206234343D25A891A6A46C4
:1001D000C0B202234343D1529849C0B206224243DF
:1001E000891849886A46C0B202234343D25A9142D1
:1001F0000AD26946C0B202224243895A8F4AC0B22B
:1002000006234343D2185180401CC3E7641CBAE75D
:10021000002001008A4A1278C9B2914250D20021CE
:100220000022D2B2102A0FDA844BC0B20624444313
:100230001B195B88984CD2B202255543645BA342DC
:1002400002D3491C521CECE7944A12785143C9B2BC
:100250007A4AC0B206234343D2185180904A12789A
:10026000521E764BC0B2062444431B195B889A4247
:1002700008DA8B4A1278521E704BC0B206244443EF
:100280001B195A806D4AC0B206234343D2185288C4
:10029000694BC0B2082444431B5B9A4207D3002237
:1002A000654BC0B2082444431B199A7106E0012231
:1002B000614BC0B2082444431B199A71401CA8E743
:1002C000002420005E490978C0B288420DD25B4804
:1002D000E4B20621614341185748E4B20822624360
:1002E000801800F011F8641CEBE7554800780228EC
:1002F00001D100F0A7F800F007FA25E700E100E0DF
:100300001CED00E000E400E030B58279002A07D15E
:1003100002884B889A4203D20288521C028009E06C
:100320008279012A06D14A8803889A4202D2028839
:10033000521E0280428803889A421DD30279521CC1
:1003400002714279002A07D10279142A04D10122CC
:100350004271052202711BE04279012A18D102790B
:10036000062A15D1028843889A4202D24288521E38
:100370004280002202710BE08279002A08D10288B3
:1003800042804279012A03D1002242710022027187
:1003900000221300424C24789BB2A4B2A34240D264
:1003A000130004889BB2A34231D292B2002A08D132
:1003B000C64B92B28C88141904256C43394D1D51DB
:1003C0002DE092B2012A08D1C04B92B28C88141948
:1003D00004256C43344D1D5121E01300334C247827
:1003E0009BB2A4B2A34209D2B84B92B28C88141922
:1003F00004256C43FF252D041D5110E0B34B92B230
:100400008C88141904256C43294D1D5107E0AF4B0E
:1004100092B28C88141904256C4300251D51521C7E
:10042000B7E7AA4A43888C881B1904246343FF2436
:100430002402D45030BD0000680200207802002061
:100440000000002010B5002415480078022100F0BB
:100450001DFAA4B284421DDA9C48A4B2042161436F
:1004600040589A490E4A1278521EA4B2121B042315
:100470005A438958954AA4B204236343D1509349FF
:10048000074A1278521EA4B2121B04235A43885002
:10049000641CD9E710BD0000240D000801000020F5
:1004A000910200208F0010001F003F0090020020EA
:1004B00000FF8F0010B5112092490860A148006824
:1004C000A021890301439F4801609F480068802163
:1004D000490401439C4801609B4800688001FBD5AA
:1004E0009848006803218843964908609548006849
:1004F0000221014393480160924800680C210140A9
:100500000829F9D1914800688421C90301438F4823
:1005100001608F480068102101438D4801608D48BB
:1005200000688007800F8C490870884800688B49F4
:1005300001408648016088480078002805D00228DC
:100540000BD006D303280CD00EE008208249087097
:100550000AE010208049087006E020207E490870DB
:1005600002E040207C4908707D480068400702D4C2
:1005700001207C490870764800681021884374493E
:100580000860754800787749097800F07FF9764966
:1005900008707548047874480078032100F076F9F3
:1005A000201A401E714908706F480078202803D136
:1005B00002206F49087006E06B480078402802D19D
:1005C00004206B490870002080B2402807DA00211F
:1005D0003E4A80B204234343D150401CF4E700203C
:1005E000C0B2022837DA1621624AC0B2062343435A
:1005F000D15200215F4AC0B206234343D218518032
:1006000000215C4AC0B206234343D21891800021E6
:10061000594AC0B208234343D1520121564AC0B2BD
:1006200008234343D21851800021534AC0B2082303
:100630004343D218917101214F4AC0B2082343436A
:10064000D218517105214C4AC0B208234343D21835
:100650001171401CC4E743480078022806D13E4887
:100660000078022100F012F942498880434800686E
:1006700080218902014341480160414841490860A5
:1006800039480078042100F001F90100C820000178
:1006900000F0FCF8401E3C49086001203B4908601E
:1006A0001520FFF705FD01211520FFF708FD384A49
:1006B00029480178054800F08CF900F071F83548B8
:1006C0000068012101433348016010BD080100208A
:1006D00031480068012188432F4908602D4800688F
:1006E000012188432B4908602C48007802210143EE
:1006F0002A480170704729480078FE2101402748A8
:10070000017070470020024080B5244800788007BF
:10071000FBD522480078012101432048017000F0F8
:10072000B5F91E480078C007FBD41C480078FD21AD
:1007300001401A480170174800680121014315481B
:10074000016001BD0410024000100240141002407C
:100750000C000048101400488F020020FFFFBFFF6C
:1007600010000048000000209102002090020020AC
:1007700001000020780200206802002018100240CA
:100780001F030000284401402C4401400C44014058
:10079000F706000800440140104401408E0200208A
:1007A00000B59020C00500680F2101439020C005CE
:1007B00001602348006880218900014320480160CE
:1007C000204800688021090601431E4801601D4839
:1007D00000680028FBD4802000061B490860032025
:1007E0001A49086001201A4908601648006801216A
:1007F00001431448016017480068C007FBD500BDDD
:1008000000B50021C9B2022918DA134AC9B202237D
:100810004B43D25A0E4B1A600A4A12680423134300
:10082000084A13600B4A12685207FBD50B4A12683C
:10083000C9B202234B43C252491CE3E700BD00008A
:1008400018100240082401401024014014240140E3
:100850002824014000240140940E00084024014057
:10086000F446002804D4494200F013F8404260479F
:100870004042002905D45FD000F00BF840424942C5
:100880006047494200F005F84942604703460B4380
:10089000E6D40022030A8B420BD203098B4219D201
:1008A00043088B422ED2411A00D2014652411046D3
:1008B0007047FF2209023FD012068B4205D3121265
:1008C00009028B4201D31212090203098B4219D388
:1008D00000E0090AC3098B4201D3CB01C01A52417F
:1008E00083098B4201D38B01C01A524143098B42C9
:1008F00001D34B01C01A524103098B4201D30B01B2
:10090000C01A5241C3088B4201D3CB00C01A5241D6
:1009100083088B4201D38B00C01A524143088B429B
:1009200001D34B00C01A5241884200D3401A5241B1
:10093000CFD201461046704708B500F0A7F908BDB0
:100940000121C206D20E9140B44A11607047F0B541
:1009500040B2002821D58C4C40B20207120F083A51
:10096000950804225543884A40B203071B0F083BF1
:100970009B0804267343D258FF238607B60F082727
:100980007E43B3409A438B01DBB28607B60F08273C
:100990007E43B340134363511AE0A14A40B2830837
:1009A00004246343D258FF238407A40F08256C4313
:1009B000A3409A438B01DBB28407A40F08256C4344
:1009C000A3401343964A40B2840804256C43135154
:1009D000F0BD70B505000C00160092480560924805
:1009E00004709248066092480068012101439048D3
:1009F000016090489049086090489149086091488A
:100A0000914908600920FFF79BFF00210920FFF7AB
:100A10009EFF9020C00500688021090201439020BC
:100A2000C005016089480068A021C90501438748C5
:100A3000016087480068C0210902014384480160C1
:100A4000844800688021C9010143824801608248CE
:100A500000688021C90201437F48016004207F496A
:100A600008600B207E49086068207E49086080206D
:100A700000027D49086001207C49086080208000D8
:100A80007B49086000207B49086070BD80B500206C
:100A900079490880002000F079F877480088801CA8
:100AA00075490880022000F071F8602073490860E1
:100AB00000206049086064480068012101436248E1
:100AC00001606F480068012101436D48016001BD6C
:100AD00080B56C480068400718D5674800885249BF
:100AE0000978891E884208DA63480088801C6249B8
:100AF0000880002000F04AF83EE05F480088801C33
:100B00005D490880002000F06FF835E05D4800681E
:100B1000800731D5584800884349097889B288420E
:100B200008D255480088801C53490880022000F0F4
:100B30002DF821E0504800883B49097889B2884265
:100B400008D14D480088801C4B490880022000F0E5
:100B50004BF811E04A480068012188434849086081
:100B6000002044490860384800680121884336491C
:100B700008602E480068804743480068012101430F
:100B80004148016001BD00001CED00E070B500218E
:100B900089B2022927DA0022D2B2182A21DAC0B299
:100BA0004318182463431733D2B29B1A1D4C246890
:100BB000314D2D8889B26D1804267543645901257D
:100BC0009540254001249440A54204D10A241B4DA0
:100BD0009BB2EC5403E00224184D9BB2EC54521C1F
:100BE000DAE7491CD4E770BD30B5002189B202298B
:100BF00012DA0022D2B2182A0CDAC0B289B2431833
:100C000018246343D2B29B1800240C4D9BB2EC54C1
:100C1000521CEFE7491CE9E730BD000000E100E0AD
:100C200000E400E0840200209202002088020020FC
:100C30001410024034480140100002400802002015
:100C400014000240B63100000800024020000048B5
:100C5000080000480C0000481810024028480140D5
:100C60002C480140184801404448014020480140B8
:100C70000C480140104801408C0200200C0002404A
:100C80000048014000000240040002407047FEE7B7
:100C9000194800680121014317480160174800689E
:100CA0001749014015480160134800681549014083
:100CB0001148016010480068134901400E48016066
:100CC0000E480068114901400C4801601048006856
:100CD0000F2188430E4908600E4800680E49014004
:100CE0000C4801600D480068012188430B490860E9
:100CF00000200B49086070470010024004100240B9
:100D00000CB8FF08FFFFF6FEFFFFFBFFFFFFC0FF71
:100D10002C10024030100240ECFEFFFF3410024065
:100D2000081002400F00140018001E002D003000B3
:100D30003C004C00600079009800C000F2003001D7
:100D40007F01E2015F02FC02C2033704BB044E05CF
:100D5000F405AE067E0769087009960AE10B540D8A
:100D6000F40E000070B40121002213E00468001D9D
:100D70000C4202D04D466D1E64192260241D1B1FBB
:100D8000042BFAD225009E0701D52280AD1C0B4012
:100D900000D02A700368001D002BE7D170BC70479B
:100DA00030B401210268001D002A0FD00368C31867
:100DB000446808300C4202D04D466D1E64191D680F
:100DC00025601B1D241D121FECD0F8E730BC7047B6
:100DD00010B5074979441831064C7C44163404E0B8
:100DE000081D0A68891888470100A142F8D110BD82
:100DF00008000000280000006DFFFFFF8C010000CC
:100E0000080100200000000099FFFFFF040000001F
:100E1000A8000000000000200000000000F00BF817
:100E2000002801D0FFF7D4FF0020C046C046FFF7DE
:100E300088F900F002F80120704780B500F002F850
:100E400001BDFEE70746384600F002F8FBE7FEE783
:100E500080B5C046C046024A11001820ABBEFBE771
:100E600026000200704700B5FEE7704770477047E4
:100E700080B5FFF72DFC01BD0148804701480047C0
:100E8000910C0008890E0008C046C046C046C04606
:100E9000FFF7C4FF01000200FEE7FEE7FEE7FEE702
:100EA000FEE7FEE7FEE7FEE7FEE7FEE7FEE7FEE71A
:0C0EB000FEE7FEE7FEE700000201000084
:0400000508000E8958
:00000001FF
